15:03:58.256895 IP 10.223.114.186 > broadcasthost: ICMP echo request, id 37389, seq 0, length 64
	0x0000:  ffff ffff ffff f45c 8992 4b8f 0800 4500  .......\..K...E.
	0x0010:  0054 ac64 0000 4001 50ac 0adf 72ba ffff  .T.d..@.P...r...
	0x0020:  ffff 0800 3161 920d 0000 58a6 05ae 0003  ....1a....X.....
	0x0030:  eb36 0809 0a0b 0c0d 0e0f 1011 1213 1415  .6..............
	0x0040:  1617 1819 1a1b 1c1d 1e1f 2021 2223 2425  ...........!"#$%
	0x0050:  2627 2829 2a2b 2c2d 2e2f 3031 3233 3435  &'()*+,-./012345
	0x0060:  3637                                     67
15:03:58.261644 IP 10.223.107.177 > 10.223.114.186: ICMP echo reply, id 37389, seq 0, length 64
	0x0000:  f45c 8992 4b8f 685b 35a1 7f52 0800 4500  .\..K.h[5..R..E.
	0x0010:  0054 9325 0000 4001 f35a 0adf 6bb1 0adf  .T.%..@..Z..k...
	0x0020:  72ba 0000 3961 920d 0000 58a6 05ae 0003  r...9a....X.....
	0x0030:  eb36 0809 0a0b 0c0d 0e0f 1011 1213 1415  .6..............
	0x0040:  1617 1819 1a1b 1c1d 1e1f 2021 2223 2425  ...........!"#$%
	0x0050:  2627 2829 2a2b 2c2d 2e2f 3031 3233 3435  &'()*+,-./012345
	0x0060:  3637                                     67
15:03:58.261648 IP 10.223.127.161 > 10.223.114.186: ICMP echo reply, id 37389, seq 0, length 64
	0x0000:  f45c 8992 4b8f 6c94 f8e8 4f7c 0800 4500  .\..K.l...O|..E.
	0x0010:  0054 0bfe 0000 4001 6692 0adf 7fa1 0adf  .T....@.f.......
	0x0020:  72ba 0000 3961 920d 0000 58a6 05ae 0003  r...9a....X.....
	0x0030:  eb36 0809 0a0b 0c0d 0e0f 1011 1213 1415  .6..............
	0x0040:  1617 1819 1a1b 1c1d 1e1f 2021 2223 2425  ...........!"#$%
	0x0050:  2627 2829 2a2b 2c2d 2e2f 3031 3233 3435  &'()*+,-./012345
	0x0060:  3637                                     67
15:03:58.261649 IP 10.223.97.228 > 10.223.114.186: ICMP echo reply, id 37389, seq 0, length 64
	0x0000:  f45c 8992 4b8f a431 3516 b385 0800 4500  .\..K..15.....E.
	0x0010:  0054 14a9 0000 4001 7ba4 0adf 61e4 0adf  .T....@.{...a...
	0x0020:  72ba 0000 3961 920d 0000 58a6 05ae 0003  r...9a....X.....
	0x0030:  eb36 0809 0a0b 0c0d 0e0f 1011 1213 1415  .6..............
	0x0040:  1617 1819 1a1b 1c1d 1e1f 2021 2223 2425  ...........!"#$%
	0x0050:  2627 2829 2a2b 2c2d 2e2f 3031 3233 3435  &'()*+,-./012345
	0x0060:  3637                                     67
15:03:58.261650 IP 10.223.99.39 > 10.223.114.186: ICMP echo reply, id 37389, seq 0, length 64
	0x0000:  f45c 8992 4b8f a431 3514 d8e1 0800 4500  .\..K..15.....E.
	0x0010:  0054 2460 0000 4001 6aaa 0adf 6327 0adf  .T$`..@.j...c'..
	0x0020:  72ba 0000 3961 920d 0000 58a6 05ae 0003  r...9a....X.....
	0x0030:  eb36 0809 0a0b 0c0d 0e0f 1011 1213 1415  .6..............
	0x0040:  1617 1819 1a1b 1c1d 1e1f 2021 2223 2425  ...........!"#$%
	0x0050:  2627 2829 2a2b 2c2d 2e2f 3031 3233 3435  &'()*+,-./012345
	0x0060:  3637                                     67
15:03:58.261651 IP 10.223.96.196 > 10.223.114.186: ICMP echo reply, id 37389, seq 0, length 64
	0x0000:  f45c 8992 4b8f 6864 4b42 cb8b 0800 4500  .\..K.hdKB....E.
	0x0010:  0054 5fca 0000 4001 31a3 0adf 60c4 0adf  .T_...@.1...`...
	0x0020:  72ba 0000 3961 920d 0000 58a6 05ae 0003  r...9a....X.....
	0x0030:  eb36 0809 0a0b 0c0d 0e0f 1011 1213 1415  .6..............
	0x0040:  1617 1819 1a1b 1c1d 1e1f 2021 2223 2425  ...........!"#$%
	0x0050:  2627 2829 2a2b 2c2d 2e2f 3031 3233 3435  &'()*+,-./012345
	0x0060:  3637                                     67
15:03:59.257608 IP 10.223.114.186 > broadcasthost: ICMP echo request, id 37389, seq 1, length 64
	0x0000:  ffff ffff ffff f45c 8992 4b8f 0800 4500  .......\..K...E.
	0x0010:  0054 c53b 0000 4001 37d5 0adf 72ba ffff  .T.;..@.7...r...
	0x0020:  ffff 0800 2ebf 920d 0001 58a6 05af 0003  ..........X.....
	0x0030:  edd6 0809 0a0b 0c0d 0e0f 1011 1213 1415  ................
	0x0040:  1617 1819 1a1b 1c1d 1e1f 2021 2223 2425  ...........!"#$%
	0x0050:  2627 2829 2a2b 2c2d 2e2f 3031 3233 3435  &'()*+,-./012345
	0x0060:  3637                                     67
15:03:59.261619 IP 10.223.107.177 > 10.223.114.186: ICMP echo reply, id 37389, seq 1, length 64
	0x0000:  f45c 8992 4b8f 685b 35a1 7f52 0800 4500  .\..K.h[5..R..E.
	0x0010:  0054 2549 0000 4001 6137 0adf 6bb1 0adf  .T%I..@.a7..k...
	0x0020:  72ba 0000 36bf 920d 0001 58a6 05af 0003  r...6.....X.....
	0x0030:  edd6 0809 0a0b 0c0d 0e0f 1011 1213 1415  ................
	0x0040:  1617 1819 1a1b 1c1d 1e1f 2021 2223 2425  ...........!"#$%
	0x0050:  2627 2829 2a2b 2c2d 2e2f 3031 3233 3435  &'()*+,-./012345
	0x0060:  3637                                     67
15:03:59.261625 IP 10.223.96.196 > 10.223.114.186: ICMP echo reply, id 37389, seq 1, length 64
	0x0000:  f45c 8992 4b8f 6864 4b42 cb8b 0800 4500  .\..K.hdKB....E.
	0x0010:  0054 146a 0000 4001 7d03 0adf 60c4 0adf  .T.j..@.}...`...
	0x0020:  72ba 0000 36bf 920d 0001 58a6 05af 0003  r...6.....X.....
	0x0030:  edd6 0809 0a0b 0c0d 0e0f 1011 1213 1415  ................
	0x0040:  1617 1819 1a1b 1c1d 1e1f 2021 2223 2425  ...........!"#$%
	0x0050:  2627 2829 2a2b 2c2d 2e2f 3031 3233 3435  &'()*+,-./012345
	0x0060:  3637                                     67
15:03:59.261626 IP 10.223.127.161 > 10.223.114.186: ICMP echo reply, id 37389, seq 1, length 64
	0x0000:  f45c 8992 4b8f 6c94 f8e8 4f7c 0800 4500  .\..K.l...O|..E.
	0x0010:  0054 4c23 0000 4001 266d 0adf 7fa1 0adf  .TL#..@.&m......
	0x0020:  72ba 0000 36bf 920d 0001 58a6 05af 0003  r...6.....X.....
	0x0030:  edd6 0809 0a0b 0c0d 0e0f 1011 1213 1415  ................
	0x0040:  1617 1819 1a1b 1c1d 1e1f 2021 2223 2425  ...........!"#$%
	0x0050:  2627 2829 2a2b 2c2d 2e2f 3031 3233 3435  &'()*+,-./012345
	0x0060:  3637                                     67
15:03:59.261626 IP 10.223.97.228 > 10.223.114.186: ICMP echo reply, id 37389, seq 1, length 64
	0x0000:  f45c 8992 4b8f a431 3516 b385 0800 4500  .\..K..15.....E.
	0x0010:  0054 033c 0000 4001 8d11 0adf 61e4 0adf  .T.<..@.....a...
	0x0020:  72ba 0000 36bf 920d 0001 58a6 05af 0003  r...6.....X.....
	0x0030:  edd6 0809 0a0b 0c0d 0e0f 1011 1213 1415  ................
	0x0040:  1617 1819 1a1b 1c1d 1e1f 2021 2223 2425  ...........!"#$%
	0x0050:  2627 2829 2a2b 2c2d 2e2f 3031 3233 3435  &'()*+,-./012345
	0x0060:  3637                                     67
15:03:59.261627 IP 10.223.99.39 > 10.223.114.186: ICMP echo reply, id 37389, seq 1, length 64
	0x0000:  f45c 8992 4b8f a431 3514 d8e1 0800 4500  .\..K..15.....E.
	0x0010:  0054 2cae 0000 4001 625c 0adf 6327 0adf  .T,...@.b\..c'..
	0x0020:  72ba 0000 36bf 920d 0001 58a6 05af 0003  r...6.....X.....
	0x0030:  edd6 0809 0a0b 0c0d 0e0f 1011 1213 1415  ................
	0x0040:  1617 1819 1a1b 1c1d 1e1f 2021 2223 2425  ...........!"#$%
	0x0050:  2627 2829 2a2b 2c2d 2e2f 3031 3233 3435  &'()*+,-./012345
	0x0060:  3637                                     67
15:04:00.262591 IP 10.223.114.186 > broadcasthost: ICMP echo request, id 37389, seq 2, length 64
	0x0000:  ffff ffff ffff f45c 8992 4b8f 0800 4500  .......\..K...E.
	0x0010:  0054 bd84 0000 4001 3f8c 0adf 72ba ffff  .T....@.?...r...
	0x0020:  ffff 0800 1b45 920d 0002 58a6 05b0 0004  .....E....X.....
	0x0030:  014e 0809 0a0b 0c0d 0e0f 1011 1213 1415  .N..............
	0x0040:  1617 1819 1a1b 1c1d 1e1f 2021 2223 2425  ...........!"#$%
	0x0050:  2627 2829 2a2b 2c2d 2e2f 3031 3233 3435  &'()*+,-./012345
	0x0060:  3637                                     67
15:04:00.267034 IP 10.223.107.177 > 10.223.114.186: ICMP echo reply, id 37389, seq 2, length 64
	0x0000:  f45c 8992 4b8f 685b 35a1 7f52 0800 4500  .\..K.h[5..R..E.
	0x0010:  0054 54d7 0000 4001 31a9 0adf 6bb1 0adf  .TT...@.1...k...
	0x0020:  72ba 0000 2345 920d 0002 58a6 05b0 0004  r...#E....X.....
	0x0030:  014e 0809 0a0b 0c0d 0e0f 1011 1213 1415  .N..............
	0x0040:  1617 1819 1a1b 1c1d 1e1f 2021 2223 2425  ...........!"#$%
	0x0050:  2627 2829 2a2b 2c2d 2e2f 3031 3233 3435  &'()*+,-./012345
	0x0060:  3637                                     67
15:04:00.268361 IP 10.223.127.161 > 10.223.114.186: ICMP echo reply, id 37389, seq 2, length 64
	0x0000:  f45c 8992 4b8f 6c94 f8e8 4f7c 0800 4500  .\..K.l...O|..E.
	0x0010:  0054 a5b7 0000 4001 ccd8 0adf 7fa1 0adf  .T....@.........
	0x0020:  72ba 0000 2345 920d 0002 58a6 05b0 0004  r...#E....X.....
	0x0030:  014e 0809 0a0b 0c0d 0e0f 1011 1213 1415  .N..............
	0x0040:  1617 1819 1a1b 1c1d 1e1f 2021 2223 2425  ...........!"#$%
	0x0050:  2627 2829 2a2b 2c2d 2e2f 3031 3233 3435  &'()*+,-./012345
	0x0060:  3637                                     67
15:04:00.268367 IP 10.223.97.228 > 10.223.114.186: ICMP echo reply, id 37389, seq 2, length 64
	0x0000:  f45c 8992 4b8f a431 3516 b385 0800 4500  .\..K..15.....E.
	0x0010:  0054 bb0a 0000 4001 d542 0adf 61e4 0adf  .T....@..B..a...
	0x0020:  72ba 0000 2345 920d 0002 58a6 05b0 0004  r...#E....X.....
	0x0030:  014e 0809 0a0b 0c0d 0e0f 1011 1213 1415  .N..............
	0x0040:  1617 1819 1a1b 1c1d 1e1f 2021 2223 2425  ...........!"#$%
	0x0050:  2627 2829 2a2b 2c2d 2e2f 3031 3233 3435  &'()*+,-./012345
	0x0060:  3637                                     67
15:04:00.268369 IP 10.223.99.39 > 10.223.114.186: ICMP echo reply, id 37389, seq 2, length 64
	0x0000:  f45c 8992 4b8f a431 3514 d8e1 0800 4500  .\..K..15.....E.
	0x0010:  0054 fcb4 0000 4001 9255 0adf 6327 0adf  .T....@..U..c'..
	0x0020:  72ba 0000 2345 920d 0002 58a6 05b0 0004  r...#E....X.....
	0x0030:  014e 0809 0a0b 0c0d 0e0f 1011 1213 1415  .N..............
	0x0040:  1617 1819 1a1b 1c1d 1e1f 2021 2223 2425  ...........!"#$%
	0x0050:  2627 2829 2a2b 2c2d 2e2f 3031 3233 3435  &'()*+,-./012345
	0x0060:  3637                                     67
15:04:00.268370 IP 10.223.96.196 > 10.223.114.186: ICMP echo reply, id 37389, seq 2, length 64
	0x0000:  f45c 8992 4b8f 6864 4b42 cb8b 0800 4500  .\..K.hdKB....E.
	0x0010:  0054 c414 0000 4001 cd58 0adf 60c4 0adf  .T....@..X..`...
	0x0020:  72ba 0000 2345 920d 0002 58a6 05b0 0004  r...#E....X.....
	0x0030:  014e 0809 0a0b 0c0d 0e0f 1011 1213 1415  .N..............
	0x0040:  1617 1819 1a1b 1c1d 1e1f 2021 2223 2425  ...........!"#$%
	0x0050:  2627 2829 2a2b 2c2d 2e2f 3031 3233 3435  &'()*+,-./012345
	0x0060:  3637                                     67
15:04:01.267859 IP 10.223.114.186 > broadcasthost: ICMP echo request, id 37389, seq 3, length 64
	0x0000:  ffff ffff ffff f45c 8992 4b8f 0800 4500  .......\..K...E.
	0x0010:  0054 6a97 0000 4001 9279 0adf 72ba ffff  .Tj...@..y..r...
	0x0020:  ffff 0800 0699 920d 0003 58a6 05b1 0004  ..........X.....
	0x0030:  15f8 0809 0a0b 0c0d 0e0f 1011 1213 1415  ................
	0x0040:  1617 1819 1a1b 1c1d 1e1f 2021 2223 2425  ...........!"#$%
	0x0050:  2627 2829 2a2b 2c2d 2e2f 3031 3233 3435  &'()*+,-./012345
	0x0060:  3637                                     67
15:04:01.272780 IP 10.223.107.177 > 10.223.114.186: ICMP echo reply, id 37389, seq 3, length 64
	0x0000:  f45c 8992 4b8f 685b 35a1 7f52 0800 4500  .\..K.h[5..R..E.
	0x0010:  0054 d4e1 0000 4001 b19e 0adf 6bb1 0adf  .T....@.....k...
	0x0020:  72ba 0000 0e99 920d 0003 58a6 05b1 0004  r.........X.....
	0x0030:  15f8 0809 0a0b 0c0d 0e0f 1011 1213 1415  ................
	0x0040:  1617 1819 1a1b 1c1d 1e1f 2021 2223 2425  ...........!"#$%
	0x0050:  2627 2829 2a2b 2c2d 2e2f 3031 3233 3435  &'()*+,-./012345
	0x0060:  3637                                     67
15:04:01.272788 IP 10.223.127.161 > 10.223.114.186: ICMP echo reply, id 37389, seq 3, length 64
	0x0000:  f45c 8992 4b8f 6c94 f8e8 4f7c 0800 4500  .\..K.l...O|..E.
	0x0010:  0054 9ed1 0000 4001 d3be 0adf 7fa1 0adf  .T....@.........
	0x0020:  72ba 0000 0e99 920d 0003 58a6 05b1 0004  r.........X.....
	0x0030:  15f8 0809 0a0b 0c0d 0e0f 1011 1213 1415  ................
	0x0040:  1617 1819 1a1b 1c1d 1e1f 2021 2223 2425  ...........!"#$%
	0x0050:  2627 2829 2a2b 2c2d 2e2f 3031 3233 3435  &'()*+,-./012345
	0x0060:  3637                                     67
15:04:01.272790 IP 10.223.99.39 > 10.223.114.186: ICMP echo reply, id 37389, seq 3, length 64
	0x0000:  f45c 8992 4b8f a431 3514 d8e1 0800 4500  .\..K..15.....E.
	0x0010:  0054 feee 0000 4001 901b 0adf 6327 0adf  .T....@.....c'..
	0x0020:  72ba 0000 0e99 920d 0003 58a6 05b1 0004  r.........X.....
	0x0030:  15f8 0809 0a0b 0c0d 0e0f 1011 1213 1415  ................
	0x0040:  1617 1819 1a1b 1c1d 1e1f 2021 2223 2425  ...........!"#$%
	0x0050:  2627 2829 2a2b 2c2d 2e2f 3031 3233 3435  &'()*+,-./012345
	0x0060:  3637                                     67
15:04:01.272791 IP 10.223.96.196 > 10.223.114.186: ICMP echo reply, id 37389, seq 3, length 64
	0x0000:  f45c 8992 4b8f 6864 4b42 cb8b 0800 4500  .\..K.hdKB....E.
	0x0010:  0054 a9fc 0000 4001 e770 0adf 60c4 0adf  .T....@..p..`...
	0x0020:  72ba 0000 0e99 920d 0003 58a6 05b1 0004  r.........X.....
	0x0030:  15f8 0809 0a0b 0c0d 0e0f 1011 1213 1415  ................
	0x0040:  1617 1819 1a1b 1c1d 1e1f 2021 2223 2425  ...........!"#$%
	0x0050:  2627 2829 2a2b 2c2d 2e2f 3031 3233 3435  &'()*+,-./012345
	0x0060:  3637                                     67
15:04:01.272793 IP 10.223.97.228 > 10.223.114.186: ICMP echo reply, id 37389, seq 3, length 64
	0x0000:  f45c 8992 4b8f a431 3516 b385 0800 4500  .\..K..15.....E.
	0x0010:  0054 ee15 0000 4001 a237 0adf 61e4 0adf  .T....@..7..a...
	0x0020:  72ba 0000 0e99 920d 0003 58a6 05b1 0004  r.........X.....
	0x0030:  15f8 0809 0a0b 0c0d 0e0f 1011 1213 1415  ................
	0x0040:  1617 1819 1a1b 1c1d 1e1f 2021 2223 2425  ...........!"#$%
	0x0050:  2627 2829 2a2b 2c2d 2e2f 3031 3233 3435  &'()*+,-./012345
	0x0060:  3637                                     67
15:04:02.271287 IP 10.223.114.186 > broadcasthost: ICMP echo request, id 37389, seq 4, length 64
	0x0000:  ffff ffff ffff f45c 8992 4b8f 0800 4500  .......\..K...E.
	0x0010:  0054 d3e4 0000 4001 292c 0adf 72ba ffff  .T....@.),..r...
	0x0020:  ffff 0800 f936 920d 0004 58a6 05b2 0004  .....6....X.....
	0x0030:  2358 0809 0a0b 0c0d 0e0f 1011 1213 1415  #X..............
	0x0040:  1617 1819 1a1b 1c1d 1e1f 2021 2223 2425  ...........!"#$%
	0x0050:  2627 2829 2a2b 2c2d 2e2f 3031 3233 3435  &'()*+,-./012345
	0x0060:  3637                                     67
15:04:02.276161 IP 10.223.107.177 > 10.223.114.186: ICMP echo reply, id 37389, seq 4, length 64
	0x0000:  f45c 8992 4b8f 685b 35a1 7f52 0800 4500  .\..K.h[5..R..E.
	0x0010:  0054 5549 0000 4001 3137 0adf 6bb1 0adf  .TUI..@.17..k...
	0x0020:  72ba 0000 0137 920d 0004 58a6 05b2 0004  r....7....X.....
	0x0030:  2358 0809 0a0b 0c0d 0e0f 1011 1213 1415  #X..............
	0x0040:  1617 1819 1a1b 1c1d 1e1f 2021 2223 2425  ...........!"#$%
	0x0050:  2627 2829 2a2b 2c2d 2e2f 3031 3233 3435  &'()*+,-./012345
	0x0060:  3637                                     67
15:04:02.276166 IP 10.223.127.161 > 10.223.114.186: ICMP echo reply, id 37389, seq 4, length 64
	0x0000:  f45c 8992 4b8f 6c94 f8e8 4f7c 0800 4500  .\..K.l...O|..E.
	0x0010:  0054 6035 0000 4001 125b 0adf 7fa1 0adf  .T`5..@..[......
	0x0020:  72ba 0000 0137 920d 0004 58a6 05b2 0004  r....7....X.....
	0x0030:  2358 0809 0a0b 0c0d 0e0f 1011 1213 1415  #X..............
	0x0040:  1617 1819 1a1b 1c1d 1e1f 2021 2223 2425  ...........!"#$%
	0x0050:  2627 2829 2a2b 2c2d 2e2f 3031 3233 3435  &'()*+,-./012345
	0x0060:  3637                                     67
15:04:02.276167 IP 10.223.99.39 > 10.223.114.186: ICMP echo reply, id 37389, seq 4, length 64
	0x0000:  f45c 8992 4b8f a431 3514 d8e1 0800 4500  .\..K..15.....E.
	0x0010:  0054 ff25 0000 4001 8fe4 0adf 6327 0adf  .T.%..@.....c'..
	0x0020:  72ba 0000 0137 920d 0004 58a6 05b2 0004  r....7....X.....
	0x0030:  2358 0809 0a0b 0c0d 0e0f 1011 1213 1415  #X..............
	0x0040:  1617 1819 1a1b 1c1d 1e1f 2021 2223 2425  ...........!"#$%
	0x0050:  2627 2829 2a2b 2c2d 2e2f 3031 3233 3435  &'()*+,-./012345
	0x0060:  3637                                     67
15:04:02.276168 IP 10.223.96.196 > 10.223.114.186: ICMP echo reply, id 37389, seq 4, length 64
	0x0000:  f45c 8992 4b8f 6864 4b42 cb8b 0800 4500  .\..K.hdKB....E.
	0x0010:  0054 b442 0000 4001 dd2a 0adf 60c4 0adf  .T.B..@..*..`...
	0x0020:  72ba 0000 0137 920d 0004 58a6 05b2 0004  r....7....X.....
	0x0030:  2358 0809 0a0b 0c0d 0e0f 1011 1213 1415  #X..............
	0x0040:  1617 1819 1a1b 1c1d 1e1f 2021 2223 2425  ...........!"#$%
	0x0050:  2627 2829 2a2b 2c2d 2e2f 3031 3233 3435  &'()*+,-./012345
	0x0060:  3637                                     67
15:04:02.276169 IP 10.223.97.228 > 10.223.114.186: ICMP echo reply, id 37389, seq 4, length 64
	0x0000:  f45c 8992 4b8f a431 3516 b385 0800 4500  .\..K..15.....E.
	0x0010:  0054 9df7 0000 4001 f255 0adf 61e4 0adf  .T....@..U..a...
	0x0020:  72ba 0000 0137 920d 0004 58a6 05b2 0004  r....7....X.....
	0x0030:  2358 0809 0a0b 0c0d 0e0f 1011 1213 1415  #X..............
	0x0040:  1617 1819 1a1b 1c1d 1e1f 2021 2223 2425  ...........!"#$%
	0x0050:  2627 2829 2a2b 2c2d 2e2f 3031 3233 3435  &'()*+,-./012345
	0x0060:  3637                                     67

